{
  "contractName": "MultiSigWallet",
  "abi": [
    {
      "inputs": [
        {
          "internalType": "address[]",
          "name": "_approvalGivers",
          "type": "address[]"
        },
        {
          "internalType": "uint256",
          "name": "_signaturesRequired",
          "type": "uint256"
        }
      ],
      "stateMutability": "nonpayable",
      "type": "constructor"
    },
    {
      "anonymous": false,
      "inputs": [
        {
          "indexed": false,
          "internalType": "uint256",
          "name": "_id",
          "type": "uint256"
        },
        {
          "indexed": false,
          "internalType": "uint256",
          "name": "_approvals",
          "type": "uint256"
        },
        {
          "indexed": false,
          "internalType": "address",
          "name": "_approver",
          "type": "address"
        }
      ],
      "name": "ApprovalReceived",
      "type": "event"
    },
    {
      "anonymous": false,
      "inputs": [
        {
          "indexed": false,
          "internalType": "uint256",
          "name": "_id",
          "type": "uint256"
        }
      ],
      "name": "TransferApproved",
      "type": "event"
    },
    {
      "anonymous": false,
      "inputs": [
        {
          "indexed": false,
          "internalType": "uint256",
          "name": "_id",
          "type": "uint256"
        },
        {
          "indexed": false,
          "internalType": "uint256",
          "name": "_amount",
          "type": "uint256"
        },
        {
          "indexed": false,
          "internalType": "address",
          "name": "_intiator",
          "type": "address"
        },
        {
          "indexed": false,
          "internalType": "address",
          "name": "_receiver",
          "type": "address"
        }
      ],
      "name": "TransferRequestCreated",
      "type": "event"
    },
    {
      "inputs": [
        {
          "internalType": "uint256",
          "name": "",
          "type": "uint256"
        }
      ],
      "name": "approvalGivers",
      "outputs": [
        {
          "internalType": "address",
          "name": "",
          "type": "address"
        }
      ],
      "stateMutability": "view",
      "type": "function"
    },
    {
      "inputs": [],
      "name": "deposit",
      "outputs": [],
      "stateMutability": "payable",
      "type": "function"
    },
    {
      "inputs": [
        {
          "internalType": "uint256",
          "name": "_amount",
          "type": "uint256"
        },
        {
          "internalType": "address payable",
          "name": "_receiver",
          "type": "address"
        }
      ],
      "name": "createTransfer",
      "outputs": [],
      "stateMutability": "nonpayable",
      "type": "function"
    },
    {
      "inputs": [
        {
          "internalType": "uint256",
          "name": "_id",
          "type": "uint256"
        }
      ],
      "name": "approve",
      "outputs": [],
      "stateMutability": "nonpayable",
      "type": "function"
    },
    {
      "inputs": [],
      "name": "getTransferRequests",
      "outputs": [
        {
          "components": [
            {
              "internalType": "uint256",
              "name": "amount",
              "type": "uint256"
            },
            {
              "internalType": "address payable",
              "name": "receiver",
              "type": "address"
            },
            {
              "internalType": "uint256",
              "name": "approvals",
              "type": "uint256"
            },
            {
              "internalType": "bool",
              "name": "hasBeenSent",
              "type": "bool"
            },
            {
              "internalType": "uint256",
              "name": "id",
              "type": "uint256"
            }
          ],
          "internalType": "struct MultiSigWallet.Transfer[]",
          "name": "",
          "type": "tuple[]"
        }
      ],
      "stateMutability": "view",
      "type": "function"
    }
  ],
  "bytecode": "0x60806040523480156200001157600080fd5b50604051620010e6380380620010e68339818101604052810190620000379190620001dd565b81600090805190602001906200004f9291906200005f565b508060018190555050506200033b565b828054828255906000526020600020908101928215620000db579160200282015b82811115620000da5782518260006101000a81548173ffffffffffffffffffffffffffffffffffffffff021916908373ffffffffffffffffffffffffffffffffffffffff1602179055509160200191906001019062000080565b5b509050620000ea9190620000ee565b5090565b5b8082111562000109576000816000905550600101620000ef565b5090565b6000620001246200011e846200026b565b62000237565b905080838252602082019050828560208602820111156200014457600080fd5b60005b858110156200017857816200015d888262000182565b84526020840193506020830192505060018101905062000147565b5050509392505050565b600081519050620001938162000307565b92915050565b600082601f830112620001ab57600080fd5b8151620001bd8482602086016200010d565b91505092915050565b600081519050620001d78162000321565b92915050565b60008060408385031215620001f157600080fd5b600083015167ffffffffffffffff8111156200020c57600080fd5b6200021a8582860162000199565b92505060206200022d85828601620001c6565b9150509250929050565b6000604051905081810181811067ffffffffffffffff82111715620002615762000260620002d8565b5b8060405250919050565b600067ffffffffffffffff821115620002895762000288620002d8565b5b602082029050602081019050919050565b6000620002a782620002ae565b9050919050565b600073ffffffffffffffffffffffffffffffffffffffff82169050919050565b6000819050919050565b7f4e487b7100000000000000000000000000000000000000000000000000000000600052604160045260246000fd5b62000312816200029a565b81146200031e57600080fd5b50565b6200032c81620002ce565b81146200033857600080fd5b50565b610d9b806200034b6000396000f3fe60806040526004361061004a5760003560e01c80634c12fa471461004f578063a04ef14514610078578063b759f954146100a3578063d0e30db0146100cc578063fa26137a146100d6575b600080fd5b34801561005b57600080fd5b50610076600480360381019061007191906109ae565b610113565b005b34801561008457600080fd5b5061008d610339565b60405161009a9190610b3d565b60405180910390f35b3480156100af57600080fd5b506100ca60048036038101906100c59190610985565b610427565b005b6100d4610912565b005b3480156100e257600080fd5b506100fd60048036038101906100f89190610985565b610914565b60405161010a9190610b22565b60405180910390f35b6000805b6000805490508110156101d4573373ffffffffffffffffffffffffffffffffffffffff1660008281548110610175577f4e487b7100000000000000000000000000000000000000000000000000000000600052603260045260246000fd5b9060005260206000200160009054906101000a900473ffffffffffffffffffffffffffffffffffffffff1673ffffffffffffffffffffffffffffffffffffffff1614156101c157600191505b80806101cc90610cbf565b915050610117565b5060011515811515146101e657600080fd5b826101ef610953565b10156101fa57600080fd5b7f099c4ec4ecfc26f7c8b27aeee5443f92120fa2c4e91ba6020369ae71a4d442786002805490508433856040516102349493929190610bb1565b60405180910390a160026040518060a001604052808581526020018473ffffffffffffffffffffffffffffffffffffffff1681526020016000815260200160001515815260200160028054905081525090806001815401808255809150506001900390600052602060002090600502016000909190919091506000820151816000015560208201518160010160006101000a81548173ffffffffffffffffffffffffffffffffffffffff021916908373ffffffffffffffffffffffffffffffffffffffff1602179055506040820151816002015560608201518160030160006101000a81548160ff021916908315150217905550608082015181600401555050505050565b60606002805480602002602001604051908101604052809291908181526020016000905b8282101561041e57838290600052602060002090600502016040518060a0016040529081600082015481526020016001820160009054906101000a900473ffffffffffffffffffffffffffffffffffffffff1673ffffffffffffffffffffffffffffffffffffffff1673ffffffffffffffffffffffffffffffffffffffff168152602001600282015481526020016003820160009054906101000a900460ff161515151581526020016004820154815250508152602001906001019061035d565b50505050905090565b6000805b6000805490508110156104e8573373ffffffffffffffffffffffffffffffffffffffff1660008281548110610489577f4e487b7100000000000000000000000000000000000000000000000000000000600052603260045260246000fd5b9060005260206000200160009054906101000a900473ffffffffffffffffffffffffffffffffffffffff1673ffffffffffffffffffffffffffffffffffffffff1614156104d557600191505b80806104e090610cbf565b91505061042b565b5060011515811515146104fa57600080fd5b60001515600360003373ffffffffffffffffffffffffffffffffffffffff1673ffffffffffffffffffffffffffffffffffffffff168152602001908152602001600020600084815260200190815260200160002060009054906101000a900460ff1615151461056857600080fd5b60001515600283815481106105a6577f4e487b7100000000000000000000000000000000000000000000000000000000600052603260045260246000fd5b906000526020600020906005020160030160009054906101000a900460ff161515146105d157600080fd5b6001600360003373ffffffffffffffffffffffffffffffffffffffff1673ffffffffffffffffffffffffffffffffffffffff168152602001908152602001600020600084815260200190815260200160002060006101000a81548160ff02191690831515021790555060028281548110610674577f4e487b7100000000000000000000000000000000000000000000000000000000600052603260045260246000fd5b9060005260206000209060050201600201600081548092919061069690610cbf565b91905055507ffec9d12d15ee8c8b836a58347cb0d4980db38411bcd0b83662cee48fb20b6dee82600284815481106106f7577f4e487b7100000000000000000000000000000000000000000000000000000000600052603260045260246000fd5b9060005260206000209060050201600201543360405161071993929190610b7a565b60405180910390a16001546002838154811061075e577f4e487b7100000000000000000000000000000000000000000000000000000000600052603260045260246000fd5b9060005260206000209060050201600201541061090e576001600283815481106107b1577f4e487b7100000000000000000000000000000000000000000000000000000000600052603260045260246000fd5b906000526020600020906005020160030160006101000a81548160ff02191690831515021790555060028281548110610813577f4e487b7100000000000000000000000000000000000000000000000000000000600052603260045260246000fd5b906000526020600020906005020160010160009054906101000a900473ffffffffffffffffffffffffffffffffffffffff1673ffffffffffffffffffffffffffffffffffffffff166108fc60028481548110610898577f4e487b7100000000000000000000000000000000000000000000000000000000600052603260045260246000fd5b9060005260206000209060050201600001549081150290604051600060405180830381858888f193505050501580156108d5573d6000803e3d6000fd5b507fd9bbf1d8bef570b7e92ef1ba025425fc15915ae01f3d3be144cdc8be05442eb5826040516109059190610b5f565b60405180910390a15b5050565b565b6000818154811061092457600080fd5b906000526020600020016000915054906101000a900473ffffffffffffffffffffffffffffffffffffffff1681565b600047905090565b60008135905061096a81610d37565b92915050565b60008135905061097f81610d4e565b92915050565b60006020828403121561099757600080fd5b60006109a584828501610970565b91505092915050565b600080604083850312156109c157600080fd5b60006109cf85828601610970565b92505060206109e08582860161095b565b9150509250929050565b60006109f68383610a9c565b60a08301905092915050565b610a0b81610c89565b82525050565b610a1a81610c41565b82525050565b610a2981610c2f565b82525050565b6000610a3a82610c06565b610a448185610c1e565b9350610a4f83610bf6565b8060005b83811015610a80578151610a6788826109ea565b9750610a7283610c11565b925050600181019050610a53565b5085935050505092915050565b610a9681610c53565b82525050565b60a082016000820151610ab26000850182610b04565b506020820151610ac56020850182610a11565b506040820151610ad86040850182610b04565b506060820151610aeb6060850182610a8d565b506080820151610afe6080850182610b04565b50505050565b610b0d81610c7f565b82525050565b610b1c81610c7f565b82525050565b6000602082019050610b376000830184610a20565b92915050565b60006020820190508181036000830152610b578184610a2f565b905092915050565b6000602082019050610b746000830184610b13565b92915050565b6000606082019050610b8f6000830186610b13565b610b9c6020830185610b13565b610ba96040830184610a20565b949350505050565b6000608082019050610bc66000830187610b13565b610bd36020830186610b13565b610be06040830185610a20565b610bed6060830184610a02565b95945050505050565b6000819050602082019050919050565b600081519050919050565b6000602082019050919050565b600082825260208201905092915050565b6000610c3a82610c5f565b9050919050565b6000610c4c82610c5f565b9050919050565b60008115159050919050565b600073ffffffffffffffffffffffffffffffffffffffff82169050919050565b6000819050919050565b6000610c9482610c9b565b9050919050565b6000610ca682610cad565b9050919050565b6000610cb882610c5f565b9050919050565b6000610cca82610c7f565b91507fffffffffffffffffffffffffffffffffffffffffffffffffffffffffffffffff821415610cfd57610cfc610d08565b5b600182019050919050565b7f4e487b7100000000000000000000000000000000000000000000000000000000600052601160045260246000fd5b610d4081610c41565b8114610d4b57600080fd5b50565b610d5781610c7f565b8114610d6257600080fd5b5056fea2646970667358221220973d9412727bc6cbbbd57750adc25414327f5925c9d30d437d76da23ea62f6ac64736f6c63430008000033",
  "immutableReferences": {},
  "source": "// SPDX-License-Identifier: UNLICENSED\npragma solidity ^0.8.0;\npragma abicoder v2; \n\n/* \n- Anyone should be able to deposit ether into the smart contract\n\n- The contract creator should be able to input (1): the addresses of the owners and (2):  the numbers of approvals required for a transfer, in the constructor. For example, input 3 addresses and set the approval limit to 2. \n\n- Anyone of the owners should be able to create a transfer request. The creator of the transfer request will specify what amount and to what address the transfer will be made.\n\n- Owners should be able to approve transfer requests.\n\n- When a transfer request has the required approvals, the transfer should be sent. \n*/ \ncontract MultiSigWallet { \n    address[] public approvalGivers;\n    uint signaturesRequired; // number of approvals required per transfer \n        \n    struct Transfer { \n        uint amount; \n        address payable receiver; \n        uint approvals; \n        bool hasBeenSent; \n        uint id; \n    } \n    \n    event TransferRequestCreated(uint _id, uint _amount, address _intiator, address _receiver); \n    event ApprovalReceived(uint _id, uint _approvals, address _approver); \n    event TransferApproved(uint _id); \n    \n    Transfer[] transferRequests; \n    \n    // hashmap<k, hashmap<transferId, bool>>    \n    mapping(address => mapping(uint => bool)) approvals; \n    \n    modifier onlyOwners() { \n      bool approvalGiver = false; \n      for(uint i = 0; i < approvalGivers.length; i++){ \n        if (approvalGivers[i] == msg.sender) { \n            approvalGiver = true;   \n        } \n      } \n      require(approvalGiver == true); \n      _; \n    } \n    \n    constructor(address[] memory _approvalGivers, uint _signaturesRequired) { \n      approvalGivers = _approvalGivers; \n      signaturesRequired = _signaturesRequired; \n    } \n    \n    function deposit() public payable {}  \n    \n    function createTransfer(uint _amount, address payable _receiver) public onlyOwners { \n      require(getBalance() >= _amount); \n      emit TransferRequestCreated(transferRequests.length, _amount, msg.sender, _receiver); \n      transferRequests.push( \n        Transfer(_amount, _receiver, 0, false, transferRequests.length)\n      );\n    } \n    \n    function approve(uint _id) public onlyOwners { \n        require(approvals[msg.sender][_id] == false);   \n        require(transferRequests[_id].hasBeenSent == false); \n        \n        approvals[msg.sender][_id] = true; \n        transferRequests[_id].approvals++; \n        \n        emit ApprovalReceived(_id, transferRequests[_id].approvals, msg.sender); \n        if (transferRequests[_id].approvals >= signaturesRequired) { \n            transferRequests[_id].hasBeenSent = true; \n            transferRequests[_id].receiver.transfer(transferRequests[_id].amount); \n            emit TransferApproved(_id); \n        } \n    } \n    \n    function getTransferRequests() public view returns (Transfer[] memory) { \n        return transferRequests; \n    } \n    \n    function getBalance() private view returns (uint) {\n        return address(this).balance; \n    } \n} \n",
  "sourcePath": "/Users/jessicaju/IvanOnTech Projects/snippets/token/contracts/MultiSigWallet.sol",
  "compiler": {
    "name": "solc",
    "version": "0.8.0+commit.c7dfd78e.Emscripten.clang"
  },
  "schemaVersion": "3.3.4",
  "updatedAt": "2021-09-11T04:06:46.975Z",
  "devdoc": {
    "kind": "dev",
    "methods": {},
    "version": 1
  },
  "userdoc": {
    "kind": "user",
    "methods": {},
    "version": 1
  }
}