{
  "contractName": "MyToken",
  "abi": [
    {
      "inputs": [],
      "stateMutability": "nonpayable",
      "type": "constructor"
    },
    {
      "anonymous": false,
      "inputs": [
        {
          "indexed": true,
          "internalType": "address",
          "name": "owner",
          "type": "address"
        },
        {
          "indexed": true,
          "internalType": "address",
          "name": "spender",
          "type": "address"
        },
        {
          "indexed": false,
          "internalType": "uint256",
          "name": "value",
          "type": "uint256"
        }
      ],
      "name": "Approval",
      "type": "event"
    },
    {
      "anonymous": false,
      "inputs": [
        {
          "indexed": true,
          "internalType": "address",
          "name": "previousOwner",
          "type": "address"
        },
        {
          "indexed": true,
          "internalType": "address",
          "name": "newOwner",
          "type": "address"
        }
      ],
      "name": "OwnershipTransferred",
      "type": "event"
    },
    {
      "anonymous": false,
      "inputs": [
        {
          "indexed": false,
          "internalType": "address",
          "name": "account",
          "type": "address"
        }
      ],
      "name": "Paused",
      "type": "event"
    },
    {
      "anonymous": false,
      "inputs": [
        {
          "indexed": true,
          "internalType": "bytes32",
          "name": "role",
          "type": "bytes32"
        },
        {
          "indexed": true,
          "internalType": "bytes32",
          "name": "previousAdminRole",
          "type": "bytes32"
        },
        {
          "indexed": true,
          "internalType": "bytes32",
          "name": "newAdminRole",
          "type": "bytes32"
        }
      ],
      "name": "RoleAdminChanged",
      "type": "event"
    },
    {
      "anonymous": false,
      "inputs": [
        {
          "indexed": true,
          "internalType": "bytes32",
          "name": "role",
          "type": "bytes32"
        },
        {
          "indexed": true,
          "internalType": "address",
          "name": "account",
          "type": "address"
        },
        {
          "indexed": true,
          "internalType": "address",
          "name": "sender",
          "type": "address"
        }
      ],
      "name": "RoleGranted",
      "type": "event"
    },
    {
      "anonymous": false,
      "inputs": [
        {
          "indexed": true,
          "internalType": "bytes32",
          "name": "role",
          "type": "bytes32"
        },
        {
          "indexed": true,
          "internalType": "address",
          "name": "account",
          "type": "address"
        },
        {
          "indexed": true,
          "internalType": "address",
          "name": "sender",
          "type": "address"
        }
      ],
      "name": "RoleRevoked",
      "type": "event"
    },
    {
      "anonymous": false,
      "inputs": [
        {
          "indexed": true,
          "internalType": "address",
          "name": "from",
          "type": "address"
        },
        {
          "indexed": true,
          "internalType": "address",
          "name": "to",
          "type": "address"
        },
        {
          "indexed": false,
          "internalType": "uint256",
          "name": "value",
          "type": "uint256"
        }
      ],
      "name": "Transfer",
      "type": "event"
    },
    {
      "anonymous": false,
      "inputs": [
        {
          "indexed": false,
          "internalType": "address",
          "name": "account",
          "type": "address"
        }
      ],
      "name": "Unpaused",
      "type": "event"
    },
    {
      "inputs": [],
      "name": "CAPPER_ROLE",
      "outputs": [
        {
          "internalType": "bytes32",
          "name": "",
          "type": "bytes32"
        }
      ],
      "stateMutability": "view",
      "type": "function",
      "constant": true
    },
    {
      "inputs": [],
      "name": "DEFAULT_ADMIN_ROLE",
      "outputs": [
        {
          "internalType": "bytes32",
          "name": "",
          "type": "bytes32"
        }
      ],
      "stateMutability": "view",
      "type": "function",
      "constant": true
    },
    {
      "inputs": [],
      "name": "MINTER_ROLE",
      "outputs": [
        {
          "internalType": "bytes32",
          "name": "",
          "type": "bytes32"
        }
      ],
      "stateMutability": "view",
      "type": "function",
      "constant": true
    },
    {
      "inputs": [],
      "name": "PAUSER_ROLE",
      "outputs": [
        {
          "internalType": "bytes32",
          "name": "",
          "type": "bytes32"
        }
      ],
      "stateMutability": "view",
      "type": "function",
      "constant": true
    },
    {
      "inputs": [
        {
          "internalType": "address",
          "name": "owner",
          "type": "address"
        },
        {
          "internalType": "address",
          "name": "spender",
          "type": "address"
        }
      ],
      "name": "allowance",
      "outputs": [
        {
          "internalType": "uint256",
          "name": "",
          "type": "uint256"
        }
      ],
      "stateMutability": "view",
      "type": "function",
      "constant": true
    },
    {
      "inputs": [
        {
          "internalType": "address",
          "name": "spender",
          "type": "address"
        },
        {
          "internalType": "uint256",
          "name": "amount",
          "type": "uint256"
        }
      ],
      "name": "approve",
      "outputs": [
        {
          "internalType": "bool",
          "name": "",
          "type": "bool"
        }
      ],
      "stateMutability": "nonpayable",
      "type": "function"
    },
    {
      "inputs": [
        {
          "internalType": "address",
          "name": "account",
          "type": "address"
        }
      ],
      "name": "balanceOf",
      "outputs": [
        {
          "internalType": "uint256",
          "name": "",
          "type": "uint256"
        }
      ],
      "stateMutability": "view",
      "type": "function",
      "constant": true
    },
    {
      "inputs": [
        {
          "internalType": "uint256",
          "name": "amount",
          "type": "uint256"
        }
      ],
      "name": "burn",
      "outputs": [],
      "stateMutability": "nonpayable",
      "type": "function"
    },
    {
      "inputs": [
        {
          "internalType": "address",
          "name": "account",
          "type": "address"
        },
        {
          "internalType": "uint256",
          "name": "amount",
          "type": "uint256"
        }
      ],
      "name": "burnFrom",
      "outputs": [],
      "stateMutability": "nonpayable",
      "type": "function"
    },
    {
      "inputs": [],
      "name": "decimals",
      "outputs": [
        {
          "internalType": "uint8",
          "name": "",
          "type": "uint8"
        }
      ],
      "stateMutability": "view",
      "type": "function",
      "constant": true
    },
    {
      "inputs": [
        {
          "internalType": "address",
          "name": "spender",
          "type": "address"
        },
        {
          "internalType": "uint256",
          "name": "subtractedValue",
          "type": "uint256"
        }
      ],
      "name": "decreaseAllowance",
      "outputs": [
        {
          "internalType": "bool",
          "name": "",
          "type": "bool"
        }
      ],
      "stateMutability": "nonpayable",
      "type": "function"
    },
    {
      "inputs": [
        {
          "internalType": "bytes32",
          "name": "role",
          "type": "bytes32"
        }
      ],
      "name": "getRoleAdmin",
      "outputs": [
        {
          "internalType": "bytes32",
          "name": "",
          "type": "bytes32"
        }
      ],
      "stateMutability": "view",
      "type": "function",
      "constant": true
    },
    {
      "inputs": [
        {
          "internalType": "bytes32",
          "name": "role",
          "type": "bytes32"
        },
        {
          "internalType": "uint256",
          "name": "index",
          "type": "uint256"
        }
      ],
      "name": "getRoleMember",
      "outputs": [
        {
          "internalType": "address",
          "name": "",
          "type": "address"
        }
      ],
      "stateMutability": "view",
      "type": "function",
      "constant": true
    },
    {
      "inputs": [
        {
          "internalType": "bytes32",
          "name": "role",
          "type": "bytes32"
        }
      ],
      "name": "getRoleMemberCount",
      "outputs": [
        {
          "internalType": "uint256",
          "name": "",
          "type": "uint256"
        }
      ],
      "stateMutability": "view",
      "type": "function",
      "constant": true
    },
    {
      "inputs": [
        {
          "internalType": "bytes32",
          "name": "role",
          "type": "bytes32"
        },
        {
          "internalType": "address",
          "name": "account",
          "type": "address"
        }
      ],
      "name": "grantRole",
      "outputs": [],
      "stateMutability": "nonpayable",
      "type": "function"
    },
    {
      "inputs": [
        {
          "internalType": "bytes32",
          "name": "role",
          "type": "bytes32"
        },
        {
          "internalType": "address",
          "name": "account",
          "type": "address"
        }
      ],
      "name": "hasRole",
      "outputs": [
        {
          "internalType": "bool",
          "name": "",
          "type": "bool"
        }
      ],
      "stateMutability": "view",
      "type": "function",
      "constant": true
    },
    {
      "inputs": [
        {
          "internalType": "address",
          "name": "spender",
          "type": "address"
        },
        {
          "internalType": "uint256",
          "name": "addedValue",
          "type": "uint256"
        }
      ],
      "name": "increaseAllowance",
      "outputs": [
        {
          "internalType": "bool",
          "name": "",
          "type": "bool"
        }
      ],
      "stateMutability": "nonpayable",
      "type": "function"
    },
    {
      "inputs": [
        {
          "internalType": "address",
          "name": "to",
          "type": "address"
        },
        {
          "internalType": "uint256",
          "name": "amount",
          "type": "uint256"
        }
      ],
      "name": "mint",
      "outputs": [],
      "stateMutability": "nonpayable",
      "type": "function"
    },
    {
      "inputs": [],
      "name": "name",
      "outputs": [
        {
          "internalType": "string",
          "name": "",
          "type": "string"
        }
      ],
      "stateMutability": "view",
      "type": "function",
      "constant": true
    },
    {
      "inputs": [],
      "name": "owner",
      "outputs": [
        {
          "internalType": "address",
          "name": "",
          "type": "address"
        }
      ],
      "stateMutability": "view",
      "type": "function",
      "constant": true
    },
    {
      "inputs": [],
      "name": "pause",
      "outputs": [],
      "stateMutability": "nonpayable",
      "type": "function"
    },
    {
      "inputs": [],
      "name": "paused",
      "outputs": [
        {
          "internalType": "bool",
          "name": "",
          "type": "bool"
        }
      ],
      "stateMutability": "view",
      "type": "function",
      "constant": true
    },
    {
      "inputs": [],
      "name": "renounceOwnership",
      "outputs": [],
      "stateMutability": "nonpayable",
      "type": "function"
    },
    {
      "inputs": [
        {
          "internalType": "bytes32",
          "name": "role",
          "type": "bytes32"
        },
        {
          "internalType": "address",
          "name": "account",
          "type": "address"
        }
      ],
      "name": "renounceRole",
      "outputs": [],
      "stateMutability": "nonpayable",
      "type": "function"
    },
    {
      "inputs": [
        {
          "internalType": "bytes32",
          "name": "role",
          "type": "bytes32"
        },
        {
          "internalType": "address",
          "name": "account",
          "type": "address"
        }
      ],
      "name": "revokeRole",
      "outputs": [],
      "stateMutability": "nonpayable",
      "type": "function"
    },
    {
      "inputs": [
        {
          "internalType": "bytes4",
          "name": "interfaceId",
          "type": "bytes4"
        }
      ],
      "name": "supportsInterface",
      "outputs": [
        {
          "internalType": "bool",
          "name": "",
          "type": "bool"
        }
      ],
      "stateMutability": "view",
      "type": "function",
      "constant": true
    },
    {
      "inputs": [],
      "name": "symbol",
      "outputs": [
        {
          "internalType": "string",
          "name": "",
          "type": "string"
        }
      ],
      "stateMutability": "view",
      "type": "function",
      "constant": true
    },
    {
      "inputs": [],
      "name": "totalSupply",
      "outputs": [
        {
          "internalType": "uint256",
          "name": "",
          "type": "uint256"
        }
      ],
      "stateMutability": "view",
      "type": "function",
      "constant": true
    },
    {
      "inputs": [
        {
          "internalType": "address",
          "name": "recipient",
          "type": "address"
        },
        {
          "internalType": "uint256",
          "name": "amount",
          "type": "uint256"
        }
      ],
      "name": "transfer",
      "outputs": [
        {
          "internalType": "bool",
          "name": "",
          "type": "bool"
        }
      ],
      "stateMutability": "nonpayable",
      "type": "function"
    },
    {
      "inputs": [
        {
          "internalType": "address",
          "name": "sender",
          "type": "address"
        },
        {
          "internalType": "address",
          "name": "recipient",
          "type": "address"
        },
        {
          "internalType": "uint256",
          "name": "amount",
          "type": "uint256"
        }
      ],
      "name": "transferFrom",
      "outputs": [
        {
          "internalType": "bool",
          "name": "",
          "type": "bool"
        }
      ],
      "stateMutability": "nonpayable",
      "type": "function"
    },
    {
      "inputs": [
        {
          "internalType": "address",
          "name": "newOwner",
          "type": "address"
        }
      ],
      "name": "transferOwnership",
      "outputs": [],
      "stateMutability": "nonpayable",
      "type": "function"
    },
    {
      "inputs": [],
      "name": "unpause",
      "outputs": [],
      "stateMutability": "nonpayable",
      "type": "function"
    },
    {
      "inputs": [],
      "name": "cap",
      "outputs": [
        {
          "internalType": "uint256",
          "name": "",
          "type": "uint256"
        }
      ],
      "stateMutability": "view",
      "type": "function",
      "constant": true
    },
    {
      "inputs": [
        {
          "internalType": "uint256",
          "name": "_newCap",
          "type": "uint256"
        }
      ],
      "name": "setCap",
      "outputs": [],
      "stateMutability": "nonpayable",
      "type": "function"
    }
  ],
  "bytecode": "0x60806040523480156200001157600080fd5b506040518060400160405280600a81526020017f52616e646f6d436f696e000000000000000000000000000000000000000000008152506040518060400160405280600281526020017f52430000000000000000000000000000000000000000000000000000000000008152508181620000a062000094620001fa60201b60201c565b6200020260201b60201c565b8160069080519060200190620000b89291906200087a565b508060079080519060200190620000d19291906200087a565b5050506000600860006101000a81548160ff021916908315150217905550620001136000801b62000107620001fa60201b60201c565b620002c660201b60201c565b620001547f9f2df0fed2c77648de5860a4cc508cd0818c85b8b8a1ab4ceeef8d981c8956a662000148620001fa60201b60201c565b620002c660201b60201c565b620001957f65d7a28e3265b37a6474929f336521b332c1681b933f6cb9f3376673440d862a62000189620001fa60201b60201c565b620002c660201b60201c565b50506103e8600981905550620001e17f585dbb3f830c4325b9ffb1ad42c16ada76c518747b0fb7ee297b261fc6a0f29f620001d5620001fa60201b60201c565b620002c660201b60201c565b620001f433600a6200030e60201b60201c565b62000bb6565b600033905090565b60008060009054906101000a900473ffffffffffffffffffffffffffffffffffffffff169050816000806101000a81548173ffffffffffffffffffffffffffffffffffffffff021916908373ffffffffffffffffffffffffffffffffffffffff1602179055508173ffffffffffffffffffffffffffffffffffffffff168173ffffffffffffffffffffffffffffffffffffffff167f8be0079c531659141344cd1fd0a4f28419497f9722a3daafe3b4186f6b6457e060405160405180910390a35050565b620002dd82826200048860201b620012541760201c565b6200030981600260008581526020019081526020016000206200049e60201b620012621790919060201c565b505050565b600073ffffffffffffffffffffffffffffffffffffffff168273ffffffffffffffffffffffffffffffffffffffff16141562000381576040517f08c379a0000000000000000000000000000000000000000000000000000000008152600401620003789062000a49565b60405180910390fd5b6200039560008383620004d660201b60201c565b8060056000828254620003a9919062000abb565b9250508190555080600360008473ffffffffffffffffffffffffffffffffffffffff1673ffffffffffffffffffffffffffffffffffffffff168152602001908152602001600020600082825462000401919062000abb565b925050819055508173ffffffffffffffffffffffffffffffffffffffff16600073ffffffffffffffffffffffffffffffffffffffff167fddf252ad1be2c89b69c2b068fc378daa952ba7f163c4a11628f55a4df523b3ef8360405162000468919062000a8d565b60405180910390a36200048460008383620005a760201b60201c565b5050565b6200049a8282620005ac60201b60201c565b5050565b6000620004ce836000018373ffffffffffffffffffffffffffffffffffffffff1660001b6200069d60201b60201c565b905092915050565b620004ee8383836200071760201b620012921760201c565b600073ffffffffffffffffffffffffffffffffffffffff168373ffffffffffffffffffffffffffffffffffffffff161415620005a257620005346200073460201b60201c565b6200055d82620005496200073e60201b60201c565b6200074860201b620012a21790919060201c565b1115620005a1576040517f08c379a0000000000000000000000000000000000000000000000000000000008152600401620005989062000a27565b60405180910390fd5b5b505050565b505050565b620005be82826200076060201b60201c565b6200069957600180600084815260200190815260200160002060000160008373ffffffffffffffffffffffffffffffffffffffff1673ffffffffffffffffffffffffffffffffffffffff16815260200190815260200160002060006101000a81548160ff0219169083151502179055506200063e620001fa60201b60201c565b73ffffffffffffffffffffffffffffffffffffffff168173ffffffffffffffffffffffffffffffffffffffff16837f2f8788117e7eff1d82e926ec794901d17c78024a50270940304540a733656f0d60405160405180910390a45b5050565b6000620006b18383620007cb60201b60201c565b6200070c57826000018290806001815401808255809150506001900390600052602060002001600090919091909150558260000180549050836001016000848152602001908152602001600020819055506001905062000711565b600090505b92915050565b6200072f838383620007ee60201b620012b81760201c565b505050565b6000600954905090565b6000600554905090565b6000818362000758919062000abb565b905092915050565b60006001600084815260200190815260200160002060000160008373ffffffffffffffffffffffffffffffffffffffff1673ffffffffffffffffffffffffffffffffffffffff16815260200190815260200160002060009054906101000a900460ff16905092915050565b600080836001016000848152602001908152602001600020541415905092915050565b620008068383836200085e60201b620013101760201c565b620008166200086360201b60201c565b1562000859576040517f08c379a0000000000000000000000000000000000000000000000000000000008152600401620008509062000a6b565b60405180910390fd5b505050565b505050565b6000600860009054906101000a900460ff16905090565b828054620008889062000b22565b90600052602060002090601f016020900481019282620008ac5760008555620008f8565b82601f10620008c757805160ff1916838001178555620008f8565b82800160010185558215620008f8579182015b82811115620008f7578251825591602001919060010190620008da565b5b5090506200090791906200090b565b5090565b5b80821115620009265760008160009055506001016200090c565b5090565b60006200093960198362000aaa565b91507f45524332304361707065643a20636170206578636565646564000000000000006000830152602082019050919050565b60006200097b601f8362000aaa565b91507f45524332303a206d696e7420746f20746865207a65726f2061646472657373006000830152602082019050919050565b6000620009bd602a8362000aaa565b91507f45524332305061757361626c653a20746f6b656e207472616e7366657220776860008301527f696c6520706175736564000000000000000000000000000000000000000000006020830152604082019050919050565b62000a218162000b18565b82525050565b6000602082019050818103600083015262000a42816200092a565b9050919050565b6000602082019050818103600083015262000a64816200096c565b9050919050565b6000602082019050818103600083015262000a8681620009ae565b9050919050565b600060208201905062000aa4600083018462000a16565b92915050565b600082825260208201905092915050565b600062000ac88262000b18565b915062000ad58362000b18565b9250827fffffffffffffffffffffffffffffffffffffffffffffffffffffffffffffffff0382111562000b0d5762000b0c62000b58565b5b828201905092915050565b6000819050919050565b6000600282049050600182168062000b3b57607f821691505b6020821081141562000b525762000b5162000b87565b5b50919050565b7f4e487b7100000000000000000000000000000000000000000000000000000000600052601160045260246000fd5b7f4e487b7100000000000000000000000000000000000000000000000000000000600052602260045260246000fd5b613a448062000bc66000396000f3fe608060405234801561001057600080fd5b50600436106102065760003560e01c8063715018a61161011a578063a457c2d7116100ad578063d53913931161007c578063d5391393146105ef578063d547741f1461060d578063dd62ed3e14610629578063e63ab1e914610659578063f2fde38b1461067757610206565b8063a457c2d714610541578063a9059cbb14610571578063c7108b43146105a1578063ca15c873146105bf57610206565b80639010d07c116100e95780639010d07c146104a557806391d14854146104d557806395d89b4114610505578063a217fddf1461052357610206565b8063715018a61461045757806379cc6790146104615780638456cb591461047d5780638da5cb5b1461048757610206565b8063355274ea1161019d57806340c10f191161016c57806340c10f19146103b557806342966c68146103d157806347786d37146103ed5780635c975abb1461040957806370a082311461042757610206565b8063355274ea1461034157806336568abe1461035f578063395093511461037b5780633f4ba83a146103ab57610206565b806323b872dd116101d957806323b872dd146102a7578063248a9ca3146102d75780632f2ff15d14610307578063313ce5671461032357610206565b806301ffc9a71461020b57806306fdde031461023b578063095ea7b31461025957806318160ddd14610289575b600080fd5b6102256004803603810190610220919061292e565b610693565b6040516102329190613390565b60405180910390f35b61024361070d565b60405161025091906133c6565b60405180910390f35b610273600480360381019061026e9190612851565b61079f565b6040516102809190613390565b60405180910390f35b6102916107bd565b60405161029e91906136e8565b60405180910390f35b6102c160048036038101906102bc9190612802565b6107c7565b6040516102ce9190613390565b60405180910390f35b6102f160048036038101906102ec919061288d565b6108bf565b6040516102fe91906133ab565b60405180910390f35b610321600480360381019061031c91906128b6565b6108df565b005b61032b610913565b6040516103389190613703565b60405180910390f35b61034961091c565b60405161035691906136e8565b60405180910390f35b610379600480360381019061037491906128b6565b610926565b005b61039560048036038101906103909190612851565b61095a565b6040516103a29190613390565b60405180910390f35b6103b3610a06565b005b6103cf60048036038101906103ca9190612851565b610a80565b005b6103eb60048036038101906103e69190612957565b610afe565b005b61040760048036038101906104029190612957565b610b12565b005b610411610bcf565b60405161041e9190613390565b60405180910390f35b610441600480360381019061043c919061279d565b610be6565b60405161044e91906136e8565b60405180910390f35b61045f610c2f565b005b61047b60048036038101906104769190612851565b610cb7565b005b610485610d32565b005b61048f610dac565b60405161049c9190613375565b60405180910390f35b6104bf60048036038101906104ba91906128f2565b610dd5565b6040516104cc9190613375565b60405180910390f35b6104ef60048036038101906104ea91906128b6565b610e04565b6040516104fc9190613390565b60405180910390f35b61050d610e6f565b60405161051a91906133c6565b60405180910390f35b61052b610f01565b60405161053891906133ab565b60405180910390f35b61055b60048036038101906105569190612851565b610f08565b6040516105689190613390565b60405180910390f35b61058b60048036038101906105869190612851565b610ff3565b6040516105989190613390565b60405180910390f35b6105a9611011565b6040516105b691906133ab565b60405180910390f35b6105d960048036038101906105d4919061288d565b611035565b6040516105e691906136e8565b60405180910390f35b6105f7611059565b60405161060491906133ab565b60405180910390f35b610627600480360381019061062291906128b6565b61107d565b005b610643600480360381019061063e91906127c6565b6110b1565b60405161065091906136e8565b60405180910390f35b610661611138565b60405161066e91906133ab565b60405180910390f35b610691600480360381019061068c919061279d565b61115c565b005b60007f5a05180f000000000000000000000000000000000000000000000000000000007bffffffffffffffffffffffffffffffffffffffffffffffffffffffff1916827bffffffffffffffffffffffffffffffffffffffffffffffffffffffff19161480610706575061070582611315565b5b9050919050565b60606006805461071c90613911565b80601f016020809104026020016040519081016040528092919081815260200182805461074890613911565b80156107955780601f1061076a57610100808354040283529160200191610795565b820191906000526020600020905b81548152906001019060200180831161077857829003601f168201915b5050505050905090565b60006107b36107ac61138f565b8484611397565b6001905092915050565b6000600554905090565b60006107d4848484611562565b6000600460008673ffffffffffffffffffffffffffffffffffffffff1673ffffffffffffffffffffffffffffffffffffffff168152602001908152602001600020600061081f61138f565b73ffffffffffffffffffffffffffffffffffffffff1673ffffffffffffffffffffffffffffffffffffffff1681526020019081526020016000205490508281101561089f576040517f08c379a000000000000000000000000000000000000000000000000000000000815260040161089690613548565b60405180910390fd5b6108b3856108ab61138f565b858403611397565b60019150509392505050565b600060016000838152602001908152602001600020600101549050919050565b6108e982826117e6565b61090e816002600085815260200190815260200160002061126290919063ffffffff16565b505050565b60006012905090565b6000600954905090565b610930828261180f565b610955816002600085815260200190815260200160002061189290919063ffffffff16565b505050565b60006109fc61096761138f565b84846004600061097561138f565b73ffffffffffffffffffffffffffffffffffffffff1673ffffffffffffffffffffffffffffffffffffffff16815260200190815260200160002060008873ffffffffffffffffffffffffffffffffffffffff1673ffffffffffffffffffffffffffffffffffffffff168152602001908152602001600020546109f79190613745565b611397565b6001905092915050565b610a377f65d7a28e3265b37a6474929f336521b332c1681b933f6cb9f3376673440d862a610a3261138f565b610e04565b610a76576040517f08c379a0000000000000000000000000000000000000000000000000000000008152600401610a6d90613488565b60405180910390fd5b610a7e6118c2565b565b610ab17f9f2df0fed2c77648de5860a4cc508cd0818c85b8b8a1ab4ceeef8d981c8956a6610aac61138f565b610e04565b610af0576040517f08c379a0000000000000000000000000000000000000000000000000000000008152600401610ae790613588565b60405180910390fd5b610afa8282611964565b5050565b610b0f610b0961138f565b82611ac5565b50565b610b437f585dbb3f830c4325b9ffb1ad42c16ada76c518747b0fb7ee297b261fc6a0f29f610b3e61138f565b610e04565b610b82576040517f08c379a0000000000000000000000000000000000000000000000000000000008152600401610b7990613508565b60405180910390fd5b60008111610bc5576040517f08c379a0000000000000000000000000000000000000000000000000000000008152600401610bbc90613428565b60405180910390fd5b8060098190555050565b6000600860009054906101000a900460ff16905090565b6000600360008373ffffffffffffffffffffffffffffffffffffffff1673ffffffffffffffffffffffffffffffffffffffff168152602001908152602001600020549050919050565b610c3761138f565b73ffffffffffffffffffffffffffffffffffffffff16610c55610dac565b73ffffffffffffffffffffffffffffffffffffffff1614610cab576040517f08c379a0000000000000000000000000000000000000000000000000000000008152600401610ca290613568565b60405180910390fd5b610cb56000611c9e565b565b6000610cca83610cc561138f565b6110b1565b905081811015610d0f576040517f08c379a0000000000000000000000000000000000000000000000000000000008152600401610d06906135a8565b60405180910390fd5b610d2383610d1b61138f565b848403611397565b610d2d8383611ac5565b505050565b610d637f65d7a28e3265b37a6474929f336521b332c1681b933f6cb9f3376673440d862a610d5e61138f565b610e04565b610da2576040517f08c379a0000000000000000000000000000000000000000000000000000000008152600401610d9990613648565b60405180910390fd5b610daa611d62565b565b60008060009054906101000a900473ffffffffffffffffffffffffffffffffffffffff16905090565b6000610dfc8260026000868152602001908152602001600020611e0590919063ffffffff16565b905092915050565b60006001600084815260200190815260200160002060000160008373ffffffffffffffffffffffffffffffffffffffff1673ffffffffffffffffffffffffffffffffffffffff16815260200190815260200160002060009054906101000a900460ff16905092915050565b606060078054610e7e90613911565b80601f0160208091040260200160405190810160405280929190818152602001828054610eaa90613911565b8015610ef75780601f10610ecc57610100808354040283529160200191610ef7565b820191906000526020600020905b815481529060010190602001808311610eda57829003601f168201915b5050505050905090565b6000801b81565b60008060046000610f1761138f565b73ffffffffffffffffffffffffffffffffffffffff1673ffffffffffffffffffffffffffffffffffffffff16815260200190815260200160002060008573ffffffffffffffffffffffffffffffffffffffff1673ffffffffffffffffffffffffffffffffffffffff16815260200190815260200160002054905082811015610fd4576040517f08c379a0000000000000000000000000000000000000000000000000000000008152600401610fcb90613668565b60405180910390fd5b610fe8610fdf61138f565b85858403611397565b600191505092915050565b600061100761100061138f565b8484611562565b6001905092915050565b7f585dbb3f830c4325b9ffb1ad42c16ada76c518747b0fb7ee297b261fc6a0f29f81565b600061105260026000848152602001908152602001600020611e1f565b9050919050565b7f9f2df0fed2c77648de5860a4cc508cd0818c85b8b8a1ab4ceeef8d981c8956a681565b6110878282611e34565b6110ac816002600085815260200190815260200160002061189290919063ffffffff16565b505050565b6000600460008473ffffffffffffffffffffffffffffffffffffffff1673ffffffffffffffffffffffffffffffffffffffff16815260200190815260200160002060008373ffffffffffffffffffffffffffffffffffffffff1673ffffffffffffffffffffffffffffffffffffffff16815260200190815260200160002054905092915050565b7f65d7a28e3265b37a6474929f336521b332c1681b933f6cb9f3376673440d862a81565b61116461138f565b73ffffffffffffffffffffffffffffffffffffffff16611182610dac565b73ffffffffffffffffffffffffffffffffffffffff16146111d8576040517f08c379a00000000000000000000000000000000000000000000000000000000081526004016111cf90613568565b60405180910390fd5b600073ffffffffffffffffffffffffffffffffffffffff168173ffffffffffffffffffffffffffffffffffffffff161415611248576040517f08c379a000000000000000000000000000000000000000000000000000000000815260040161123f906134a8565b60405180910390fd5b61125181611c9e565b50565b61125e8282611e5d565b5050565b600061128a836000018373ffffffffffffffffffffffffffffffffffffffff1660001b611f3d565b905092915050565b61129d8383836112b8565b505050565b600081836112b09190613745565b905092915050565b6112c3838383611310565b6112cb610bcf565b1561130b576040517f08c379a0000000000000000000000000000000000000000000000000000000008152600401611302906136c8565b60405180910390fd5b505050565b505050565b60007f7965db0b000000000000000000000000000000000000000000000000000000007bffffffffffffffffffffffffffffffffffffffffffffffffffffffff1916827bffffffffffffffffffffffffffffffffffffffffffffffffffffffff19161480611388575061138782611fad565b5b9050919050565b600033905090565b600073ffffffffffffffffffffffffffffffffffffffff168373ffffffffffffffffffffffffffffffffffffffff161415611407576040517f08c379a00000000000000000000000000000000000000000000000000000000081526004016113fe90613628565b60405180910390fd5b600073ffffffffffffffffffffffffffffffffffffffff168273ffffffffffffffffffffffffffffffffffffffff161415611477576040517f08c379a000000000000000000000000000000000000000000000000000000000815260040161146e906134c8565b60405180910390fd5b80600460008573ffffffffffffffffffffffffffffffffffffffff1673ffffffffffffffffffffffffffffffffffffffff16815260200190815260200160002060008473ffffffffffffffffffffffffffffffffffffffff1673ffffffffffffffffffffffffffffffffffffffff168152602001908152602001600020819055508173ffffffffffffffffffffffffffffffffffffffff168373ffffffffffffffffffffffffffffffffffffffff167f8c5be1e5ebec7d5bd14f71427d1e84f3dd0314c0f7b2291e5b200ac8c7c3b9258360405161155591906136e8565b60405180910390a3505050565b600073ffffffffffffffffffffffffffffffffffffffff168373ffffffffffffffffffffffffffffffffffffffff1614156115d2576040517f08c379a00000000000000000000000000000000000000000000000000000000081526004016115c9906135e8565b60405180910390fd5b600073ffffffffffffffffffffffffffffffffffffffff168273ffffffffffffffffffffffffffffffffffffffff161415611642576040517f08c379a000000000000000000000000000000000000000000000000000000000815260040161163990613408565b60405180910390fd5b61164d838383612017565b6000600360008573ffffffffffffffffffffffffffffffffffffffff1673ffffffffffffffffffffffffffffffffffffffff168152602001908152602001600020549050818110156116d4576040517f08c379a00000000000000000000000000000000000000000000000000000000081526004016116cb906134e8565b60405180910390fd5b818103600360008673ffffffffffffffffffffffffffffffffffffffff1673ffffffffffffffffffffffffffffffffffffffff1681526020019081526020016000208190555081600360008573ffffffffffffffffffffffffffffffffffffffff1673ffffffffffffffffffffffffffffffffffffffff16815260200190815260200160002060008282546117699190613745565b925050819055508273ffffffffffffffffffffffffffffffffffffffff168473ffffffffffffffffffffffffffffffffffffffff167fddf252ad1be2c89b69c2b068fc378daa952ba7f163c4a11628f55a4df523b3ef846040516117cd91906136e8565b60405180910390a36117e08484846120c0565b50505050565b6117ef826108bf565b611800816117fb61138f565b6120c5565b61180a8383611e5d565b505050565b61181761138f565b73ffffffffffffffffffffffffffffffffffffffff168173ffffffffffffffffffffffffffffffffffffffff1614611884576040517f08c379a000000000000000000000000000000000000000000000000000000000815260040161187b90613688565b60405180910390fd5b61188e8282612162565b5050565b60006118ba836000018373ffffffffffffffffffffffffffffffffffffffff1660001b612244565b905092915050565b6118ca610bcf565b611909576040517f08c379a000000000000000000000000000000000000000000000000000000000815260040161190090613448565b60405180910390fd5b6000600860006101000a81548160ff0219169083151502179055507f5db9ee0a495bf2e6ff9c91a7834c1ba4fdd244a5e8aa4e537bd38aeae4b073aa61194d61138f565b60405161195a9190613375565b60405180910390a1565b600073ffffffffffffffffffffffffffffffffffffffff168273ffffffffffffffffffffffffffffffffffffffff1614156119d4576040517f08c379a00000000000000000000000000000000000000000000000000000000081526004016119cb906136a8565b60405180910390fd5b6119e060008383612017565b80600560008282546119f29190613745565b9250508190555080600360008473ffffffffffffffffffffffffffffffffffffffff1673ffffffffffffffffffffffffffffffffffffffff1681526020019081526020016000206000828254611a489190613745565b925050819055508173ffffffffffffffffffffffffffffffffffffffff16600073ffffffffffffffffffffffffffffffffffffffff167fddf252ad1be2c89b69c2b068fc378daa952ba7f163c4a11628f55a4df523b3ef83604051611aad91906136e8565b60405180910390a3611ac1600083836120c0565b5050565b600073ffffffffffffffffffffffffffffffffffffffff168273ffffffffffffffffffffffffffffffffffffffff161415611b35576040517f08c379a0000000000000000000000000000000000000000000000000000000008152600401611b2c906135c8565b60405180910390fd5b611b4182600083612017565b6000600360008473ffffffffffffffffffffffffffffffffffffffff1673ffffffffffffffffffffffffffffffffffffffff16815260200190815260200160002054905081811015611bc8576040517f08c379a0000000000000000000000000000000000000000000000000000000008152600401611bbf90613468565b60405180910390fd5b818103600360008573ffffffffffffffffffffffffffffffffffffffff1673ffffffffffffffffffffffffffffffffffffffff168152602001908152602001600020819055508160056000828254611c2091906137f5565b92505081905550600073ffffffffffffffffffffffffffffffffffffffff168373ffffffffffffffffffffffffffffffffffffffff167fddf252ad1be2c89b69c2b068fc378daa952ba7f163c4a11628f55a4df523b3ef84604051611c8591906136e8565b60405180910390a3611c99836000846120c0565b505050565b60008060009054906101000a900473ffffffffffffffffffffffffffffffffffffffff169050816000806101000a81548173ffffffffffffffffffffffffffffffffffffffff021916908373ffffffffffffffffffffffffffffffffffffffff1602179055508173ffffffffffffffffffffffffffffffffffffffff168173ffffffffffffffffffffffffffffffffffffffff167f8be0079c531659141344cd1fd0a4f28419497f9722a3daafe3b4186f6b6457e060405160405180910390a35050565b611d6a610bcf565b15611daa576040517f08c379a0000000000000000000000000000000000000000000000000000000008152600401611da190613528565b60405180910390fd5b6001600860006101000a81548160ff0219169083151502179055507f62e78cea01bee320cd4e420270b5ea74000d11b0c9f74754ebdbfc544b05a258611dee61138f565b604051611dfb9190613375565b60405180910390a1565b6000611e1483600001836123ca565b60001c905092915050565b6000611e2d8260000161241b565b9050919050565b611e3d826108bf565b611e4e81611e4961138f565b6120c5565b611e588383612162565b505050565b611e678282610e04565b611f3957600180600084815260200190815260200160002060000160008373ffffffffffffffffffffffffffffffffffffffff1673ffffffffffffffffffffffffffffffffffffffff16815260200190815260200160002060006101000a81548160ff021916908315150217905550611ede61138f565b73ffffffffffffffffffffffffffffffffffffffff168173ffffffffffffffffffffffffffffffffffffffff16837f2f8788117e7eff1d82e926ec794901d17c78024a50270940304540a733656f0d60405160405180910390a45b5050565b6000611f49838361242c565b611fa2578260000182908060018154018082558091505060019003906000526020600020016000909190919091505582600001805490508360010160008481526020019081526020016000208190555060019050611fa7565b600090505b92915050565b60007f01ffc9a7000000000000000000000000000000000000000000000000000000007bffffffffffffffffffffffffffffffffffffffffffffffffffffffff1916827bffffffffffffffffffffffffffffffffffffffffffffffffffffffff1916149050919050565b612022838383611292565b600073ffffffffffffffffffffffffffffffffffffffff168373ffffffffffffffffffffffffffffffffffffffff1614156120bb5761205f61091c565b6120798261206b6107bd565b6112a290919063ffffffff16565b11156120ba576040517f08c379a00000000000000000000000000000000000000000000000000000000081526004016120b190613608565b60405180910390fd5b5b505050565b505050565b6120cf8282610e04565b61215e576120f48173ffffffffffffffffffffffffffffffffffffffff16601461244f565b6121028360001c602061244f565b60405160200161211392919061333b565b6040516020818303038152906040526040517f08c379a000000000000000000000000000000000000000000000000000000000815260040161215591906133c6565b60405180910390fd5b5050565b61216c8282610e04565b156122405760006001600084815260200190815260200160002060000160008373ffffffffffffffffffffffffffffffffffffffff1673ffffffffffffffffffffffffffffffffffffffff16815260200190815260200160002060006101000a81548160ff0219169083151502179055506121e561138f565b73ffffffffffffffffffffffffffffffffffffffff168173ffffffffffffffffffffffffffffffffffffffff16837ff6391f5c32d9c69d2a47ea670b442974b53935d1edc7fd64eb21e047a839171b60405160405180910390a45b5050565b600080836001016000848152602001908152602001600020549050600081146123be57600060018261227691906137f5565b905060006001866000018054905061228e91906137f5565b90508181146123495760008660000182815481106122d5577f4e487b7100000000000000000000000000000000000000000000000000000000600052603260045260246000fd5b906000526020600020015490508087600001848154811061231f577f4e487b7100000000000000000000000000000000000000000000000000000000600052603260045260246000fd5b90600052602060002001819055508387600101600083815260200190815260200160002081905550505b85600001805480612383577f4e487b7100000000000000000000000000000000000000000000000000000000600052603160045260246000fd5b6001900381819060005260206000200160009055905585600101600086815260200190815260200160002060009055600193505050506123c4565b60009150505b92915050565b6000826000018281548110612408577f4e487b7100000000000000000000000000000000000000000000000000000000600052603260045260246000fd5b9060005260206000200154905092915050565b600081600001805490509050919050565b600080836001016000848152602001908152602001600020541415905092915050565b606060006002836002612462919061379b565b61246c9190613745565b67ffffffffffffffff8111156124ab577f4e487b7100000000000000000000000000000000000000000000000000000000600052604160045260246000fd5b6040519080825280601f01601f1916602001820160405280156124dd5781602001600182028036833780820191505090505b5090507f30000000000000000000000000000000000000000000000000000000000000008160008151811061253b577f4e487b7100000000000000000000000000000000000000000000000000000000600052603260045260246000fd5b60200101907effffffffffffffffffffffffffffffffffffffffffffffffffffffffffffff1916908160001a9053507f7800000000000000000000000000000000000000000000000000000000000000816001815181106125c5577f4e487b7100000000000000000000000000000000000000000000000000000000600052603260045260246000fd5b60200101907effffffffffffffffffffffffffffffffffffffffffffffffffffffffffffff1916908160001a90535060006001846002612605919061379b565b61260f9190613745565b90505b60018111156126fb577f3031323334353637383961626364656600000000000000000000000000000000600f861660108110612677577f4e487b7100000000000000000000000000000000000000000000000000000000600052603260045260246000fd5b1a60f81b8282815181106126b4577f4e487b7100000000000000000000000000000000000000000000000000000000600052603260045260246000fd5b60200101907effffffffffffffffffffffffffffffffffffffffffffffffffffffffffffff1916908160001a905350600485901c9450806126f4906138e7565b9050612612565b506000841461273f576040517f08c379a0000000000000000000000000000000000000000000000000000000008152600401612736906133e8565b60405180910390fd5b8091505092915050565b600081359050612758816139b2565b92915050565b60008135905061276d816139c9565b92915050565b600081359050612782816139e0565b92915050565b600081359050612797816139f7565b92915050565b6000602082840312156127af57600080fd5b60006127bd84828501612749565b91505092915050565b600080604083850312156127d957600080fd5b60006127e785828601612749565b92505060206127f885828601612749565b9150509250929050565b60008060006060848603121561281757600080fd5b600061282586828701612749565b935050602061283686828701612749565b925050604061284786828701612788565b9150509250925092565b6000806040838503121561286457600080fd5b600061287285828601612749565b925050602061288385828601612788565b9150509250929050565b60006020828403121561289f57600080fd5b60006128ad8482850161275e565b91505092915050565b600080604083850312156128c957600080fd5b60006128d78582860161275e565b92505060206128e885828601612749565b9150509250929050565b6000806040838503121561290557600080fd5b60006129138582860161275e565b925050602061292485828601612788565b9150509250929050565b60006020828403121561294057600080fd5b600061294e84828501612773565b91505092915050565b60006020828403121561296957600080fd5b600061297784828501612788565b91505092915050565b61298981613829565b82525050565b6129988161383b565b82525050565b6129a781613847565b82525050565b60006129b88261371e565b6129c28185613729565b93506129d28185602086016138b4565b6129db816139a1565b840191505092915050565b60006129f18261371e565b6129fb818561373a565b9350612a0b8185602086016138b4565b80840191505092915050565b6000612a24602083613729565b91507f537472696e67733a20686578206c656e67746820696e73756666696369656e746000830152602082019050919050565b6000612a64602383613729565b91507f45524332303a207472616e7366657220746f20746865207a65726f206164647260008301527f65737300000000000000000000000000000000000000000000000000000000006020830152604082019050919050565b6000612aca601583613729565b91507f45524332304361707065643a20636170206973203000000000000000000000006000830152602082019050919050565b6000612b0a601483613729565b91507f5061757361626c653a206e6f74207061757365640000000000000000000000006000830152602082019050919050565b6000612b4a602283613729565b91507f45524332303a206275726e20616d6f756e7420657863656564732062616c616e60008301527f63650000000000000000000000000000000000000000000000000000000000006020830152604082019050919050565b6000612bb0603983613729565b91507f45524332305072657365744d696e7465725061757365723a206d75737420686160008301527f76652070617573657220726f6c6520746f20756e7061757365000000000000006020830152604082019050919050565b6000612c16602683613729565b91507f4f776e61626c653a206e6577206f776e657220697320746865207a65726f206160008301527f64647265737300000000000000000000000000000000000000000000000000006020830152604082019050919050565b6000612c7c602283613729565b91507f45524332303a20617070726f766520746f20746865207a65726f20616464726560008301527f73730000000000000000000000000000000000000000000000000000000000006020830152604082019050919050565b6000612ce2602683613729565b91507f45524332303a207472616e7366657220616d6f756e742065786365656473206260008301527f616c616e636500000000000000000000000000000000000000000000000000006020830152604082019050919050565b6000612d48603c83613729565b91507f45524332305072657365744d696e7465725061757365723a206d75737420686160008301527f76652063617070657220726f6c6520746f206368616e676520636170000000006020830152604082019050919050565b6000612dae601083613729565b91507f5061757361626c653a20706175736564000000000000000000000000000000006000830152602082019050919050565b6000612dee602883613729565b91507f45524332303a207472616e7366657220616d6f756e742065786365656473206160008301527f6c6c6f77616e63650000000000000000000000000000000000000000000000006020830152604082019050919050565b6000612e54602083613729565b91507f4f776e61626c653a2063616c6c6572206973206e6f7420746865206f776e65726000830152602082019050919050565b6000612e94603683613729565b91507f45524332305072657365744d696e7465725061757365723a206d75737420686160008301527f7665206d696e74657220726f6c6520746f206d696e74000000000000000000006020830152604082019050919050565b6000612efa602483613729565b91507f45524332303a206275726e20616d6f756e74206578636565647320616c6c6f7760008301527f616e6365000000000000000000000000000000000000000000000000000000006020830152604082019050919050565b6000612f60602183613729565b91507f45524332303a206275726e2066726f6d20746865207a65726f2061646472657360008301527f73000000000000000000000000000000000000000000000000000000000000006020830152604082019050919050565b6000612fc6602583613729565b91507f45524332303a207472616e736665722066726f6d20746865207a65726f20616460008301527f64726573730000000000000000000000000000000000000000000000000000006020830152604082019050919050565b600061302c601983613729565b91507f45524332304361707065643a20636170206578636565646564000000000000006000830152602082019050919050565b600061306c602483613729565b91507f45524332303a20617070726f76652066726f6d20746865207a65726f2061646460008301527f72657373000000000000000000000000000000000000000000000000000000006020830152604082019050919050565b60006130d2603783613729565b91507f45524332305072657365744d696e7465725061757365723a206d75737420686160008301527f76652070617573657220726f6c6520746f2070617573650000000000000000006020830152604082019050919050565b600061313860178361373a565b91507f416363657373436f6e74726f6c3a206163636f756e74200000000000000000006000830152601782019050919050565b6000613178602583613729565b91507f45524332303a2064656372656173656420616c6c6f77616e63652062656c6f7760008301527f207a65726f0000000000000000000000000000000000000000000000000000006020830152604082019050919050565b60006131de60118361373a565b91507f206973206d697373696e6720726f6c65200000000000000000000000000000006000830152601182019050919050565b600061321e602f83613729565b91507f416363657373436f6e74726f6c3a2063616e206f6e6c792072656e6f756e636560008301527f20726f6c657320666f722073656c6600000000000000000000000000000000006020830152604082019050919050565b6000613284601f83613729565b91507f45524332303a206d696e7420746f20746865207a65726f2061646472657373006000830152602082019050919050565b60006132c4602a83613729565b91507f45524332305061757361626c653a20746f6b656e207472616e7366657220776860008301527f696c6520706175736564000000000000000000000000000000000000000000006020830152604082019050919050565b6133268161389d565b82525050565b613335816138a7565b82525050565b60006133468261312b565b915061335282856129e6565b915061335d826131d1565b915061336982846129e6565b91508190509392505050565b600060208201905061338a6000830184612980565b92915050565b60006020820190506133a5600083018461298f565b92915050565b60006020820190506133c0600083018461299e565b92915050565b600060208201905081810360008301526133e081846129ad565b905092915050565b6000602082019050818103600083015261340181612a17565b9050919050565b6000602082019050818103600083015261342181612a57565b9050919050565b6000602082019050818103600083015261344181612abd565b9050919050565b6000602082019050818103600083015261346181612afd565b9050919050565b6000602082019050818103600083015261348181612b3d565b9050919050565b600060208201905081810360008301526134a181612ba3565b9050919050565b600060208201905081810360008301526134c181612c09565b9050919050565b600060208201905081810360008301526134e181612c6f565b9050919050565b6000602082019050818103600083015261350181612cd5565b9050919050565b6000602082019050818103600083015261352181612d3b565b9050919050565b6000602082019050818103600083015261354181612da1565b9050919050565b6000602082019050818103600083015261356181612de1565b9050919050565b6000602082019050818103600083015261358181612e47565b9050919050565b600060208201905081810360008301526135a181612e87565b9050919050565b600060208201905081810360008301526135c181612eed565b9050919050565b600060208201905081810360008301526135e181612f53565b9050919050565b6000602082019050818103600083015261360181612fb9565b9050919050565b600060208201905081810360008301526136218161301f565b9050919050565b600060208201905081810360008301526136418161305f565b9050919050565b60006020820190508181036000830152613661816130c5565b9050919050565b600060208201905081810360008301526136818161316b565b9050919050565b600060208201905081810360008301526136a181613211565b9050919050565b600060208201905081810360008301526136c181613277565b9050919050565b600060208201905081810360008301526136e1816132b7565b9050919050565b60006020820190506136fd600083018461331d565b92915050565b6000602082019050613718600083018461332c565b92915050565b600081519050919050565b600082825260208201905092915050565b600081905092915050565b60006137508261389d565b915061375b8361389d565b9250827fffffffffffffffffffffffffffffffffffffffffffffffffffffffffffffffff038211156137905761378f613943565b5b828201905092915050565b60006137a68261389d565b91506137b18361389d565b9250817fffffffffffffffffffffffffffffffffffffffffffffffffffffffffffffffff04831182151516156137ea576137e9613943565b5b828202905092915050565b60006138008261389d565b915061380b8361389d565b92508282101561381e5761381d613943565b5b828203905092915050565b60006138348261387d565b9050919050565b60008115159050919050565b6000819050919050565b60007fffffffff0000000000000000000000000000000000000000000000000000000082169050919050565b600073ffffffffffffffffffffffffffffffffffffffff82169050919050565b6000819050919050565b600060ff82169050919050565b60005b838110156138d25780820151818401526020810190506138b7565b838111156138e1576000848401525b50505050565b60006138f28261389d565b9150600082141561390657613905613943565b5b600182039050919050565b6000600282049050600182168061392957607f821691505b6020821081141561393d5761393c613972565b5b50919050565b7f4e487b7100000000000000000000000000000000000000000000000000000000600052601160045260246000fd5b7f4e487b7100000000000000000000000000000000000000000000000000000000600052602260045260246000fd5b6000601f19601f8301169050919050565b6139bb81613829565b81146139c657600080fd5b50565b6139d281613847565b81146139dd57600080fd5b50565b6139e981613851565b81146139f457600080fd5b50565b613a008161389d565b8114613a0b57600080fd5b5056fea26469706673582212206013fe5a150a1434f676f055b13f0057a805fe9a7e3939be33edd0be8f2dc08064736f6c63430008000033",
  "immutableReferences": {},
  "source": "// SPDX-License-Identifier: UNLICENSED\npragma solidity ^0.8.0;\n\nimport \"@openzeppelin/contracts/token/ERC20/presets/ERC20PresetMinterPauser.sol\";\nimport \"@openzeppelin/contracts/access/Ownable.sol\";\nimport \"@openzeppelin/contracts/utils/math/SafeMath.sol\"; \n\ncontract MyToken is Ownable, ERC20PresetMinterPauser {\n\n    // Using ERC20PresetMinterPauser's roles {minter, pauser}\n    bytes32 public constant CAPPER_ROLE = keccak256(\"CAPPER_ROLE\");\n\n    constructor() ERC20PresetMinterPauser(\"RandomCoin\", \"RC\") {\n        _cap = 1000;\n        _setupRole(CAPPER_ROLE, _msgSender());\n        _mint(msg.sender, 10);\n    }\n\n    using SafeMath for uint256;\n    uint256 private _cap;\n\n    function cap() public view virtual returns (uint256) {\n        return _cap;\n    }\n\n    function _beforeTokenTransfer(\n        address from,\n        address to,\n        uint256 amount\n    ) internal virtual override {\n        super._beforeTokenTransfer(from, to, amount);\n\n        if (from == address(0)) {\n            require(\n                totalSupply().add(amount) <= cap(), \"ERC20Capped: cap exceeded\"\n            );\n        }\n    }\n\n    // new function that allows you to modify the cap.\n    function setCap(uint256 _newCap) public {\n        require(\n            hasRole(CAPPER_ROLE, _msgSender()),\n            \"ERC20PresetMinterPauser: must have capper role to change cap\"\n        );\n        require(_newCap > 0, \"ERC20Capped: cap is 0\");\n        _cap = _newCap;\n    }\n}\n",
  "sourcePath": "/Users/jessicaju/IvanOnTech Projects/snippets/token/contracts/Token.sol",
  "compiler": {
    "name": "solc",
    "version": "0.8.0+commit.c7dfd78e.Emscripten.clang"
  },
  "schemaVersion": "3.3.4",
  "updatedAt": "2021-09-11T04:13:06.497Z",
  "networkType": "ethereum",
  "devdoc": {
    "kind": "dev",
    "methods": {
      "allowance(address,address)": {
        "details": "See {IERC20-allowance}."
      },
      "approve(address,uint256)": {
        "details": "See {IERC20-approve}. Requirements: - `spender` cannot be the zero address."
      },
      "balanceOf(address)": {
        "details": "See {IERC20-balanceOf}."
      },
      "burn(uint256)": {
        "details": "Destroys `amount` tokens from the caller. See {ERC20-_burn}."
      },
      "burnFrom(address,uint256)": {
        "details": "Destroys `amount` tokens from `account`, deducting from the caller's allowance. See {ERC20-_burn} and {ERC20-allowance}. Requirements: - the caller must have allowance for ``accounts``'s tokens of at least `amount`."
      },
      "decimals()": {
        "details": "Returns the number of decimals used to get its user representation. For example, if `decimals` equals `2`, a balance of `505` tokens should be displayed to a user as `5.05` (`505 / 10 ** 2`). Tokens usually opt for a value of 18, imitating the relationship between Ether and Wei. This is the value {ERC20} uses, unless this function is overridden; NOTE: This information is only used for _display_ purposes: it in no way affects any of the arithmetic of the contract, including {IERC20-balanceOf} and {IERC20-transfer}."
      },
      "decreaseAllowance(address,uint256)": {
        "details": "Atomically decreases the allowance granted to `spender` by the caller. This is an alternative to {approve} that can be used as a mitigation for problems described in {IERC20-approve}. Emits an {Approval} event indicating the updated allowance. Requirements: - `spender` cannot be the zero address. - `spender` must have allowance for the caller of at least `subtractedValue`."
      },
      "getRoleAdmin(bytes32)": {
        "details": "Returns the admin role that controls `role`. See {grantRole} and {revokeRole}. To change a role's admin, use {_setRoleAdmin}."
      },
      "getRoleMember(bytes32,uint256)": {
        "details": "Returns one of the accounts that have `role`. `index` must be a value between 0 and {getRoleMemberCount}, non-inclusive. Role bearers are not sorted in any particular way, and their ordering may change at any point. WARNING: When using {getRoleMember} and {getRoleMemberCount}, make sure you perform all queries on the same block. See the following https://forum.openzeppelin.com/t/iterating-over-elements-on-enumerableset-in-openzeppelin-contracts/2296[forum post] for more information."
      },
      "getRoleMemberCount(bytes32)": {
        "details": "Returns the number of accounts that have `role`. Can be used together with {getRoleMember} to enumerate all bearers of a role."
      },
      "grantRole(bytes32,address)": {
        "details": "Overload {grantRole} to track enumerable memberships"
      },
      "hasRole(bytes32,address)": {
        "details": "Returns `true` if `account` has been granted `role`."
      },
      "increaseAllowance(address,uint256)": {
        "details": "Atomically increases the allowance granted to `spender` by the caller. This is an alternative to {approve} that can be used as a mitigation for problems described in {IERC20-approve}. Emits an {Approval} event indicating the updated allowance. Requirements: - `spender` cannot be the zero address."
      },
      "mint(address,uint256)": {
        "details": "Creates `amount` new tokens for `to`. See {ERC20-_mint}. Requirements: - the caller must have the `MINTER_ROLE`."
      },
      "name()": {
        "details": "Returns the name of the token."
      },
      "owner()": {
        "details": "Returns the address of the current owner."
      },
      "pause()": {
        "details": "Pauses all token transfers. See {ERC20Pausable} and {Pausable-_pause}. Requirements: - the caller must have the `PAUSER_ROLE`."
      },
      "paused()": {
        "details": "Returns true if the contract is paused, and false otherwise."
      },
      "renounceOwnership()": {
        "details": "Leaves the contract without owner. It will not be possible to call `onlyOwner` functions anymore. Can only be called by the current owner. NOTE: Renouncing ownership will leave the contract without an owner, thereby removing any functionality that is only available to the owner."
      },
      "renounceRole(bytes32,address)": {
        "details": "Overload {renounceRole} to track enumerable memberships"
      },
      "revokeRole(bytes32,address)": {
        "details": "Overload {revokeRole} to track enumerable memberships"
      },
      "supportsInterface(bytes4)": {
        "details": "See {IERC165-supportsInterface}."
      },
      "symbol()": {
        "details": "Returns the symbol of the token, usually a shorter version of the name."
      },
      "totalSupply()": {
        "details": "See {IERC20-totalSupply}."
      },
      "transfer(address,uint256)": {
        "details": "See {IERC20-transfer}. Requirements: - `recipient` cannot be the zero address. - the caller must have a balance of at least `amount`."
      },
      "transferFrom(address,address,uint256)": {
        "details": "See {IERC20-transferFrom}. Emits an {Approval} event indicating the updated allowance. This is not required by the EIP. See the note at the beginning of {ERC20}. Requirements: - `sender` and `recipient` cannot be the zero address. - `sender` must have a balance of at least `amount`. - the caller must have allowance for ``sender``'s tokens of at least `amount`."
      },
      "transferOwnership(address)": {
        "details": "Transfers ownership of the contract to a new account (`newOwner`). Can only be called by the current owner."
      },
      "unpause()": {
        "details": "Unpauses all token transfers. See {ERC20Pausable} and {Pausable-_unpause}. Requirements: - the caller must have the `PAUSER_ROLE`."
      }
    },
    "version": 1
  },
  "userdoc": {
    "kind": "user",
    "methods": {},
    "version": 1
  }
}